{
  "_format": "hh-sol-artifact-1",
  "contractName": "CrowdFund",
  "sourceName": "contracts/CrowdFund.sol",
  "abi": [
    {
      "inputs": [
        {
          "internalType": "address",
          "name": "_token",
          "type": "address"
        }
      ],
      "stateMutability": "nonpayable",
      "type": "constructor"
    },
    {
      "anonymous": false,
      "inputs": [
        {
          "indexed": false,
          "internalType": "uint256",
          "name": "id",
          "type": "uint256"
        }
      ],
      "name": "Cancel",
      "type": "event"
    },
    {
      "anonymous": false,
      "inputs": [
        {
          "indexed": false,
          "internalType": "uint256",
          "name": "id",
          "type": "uint256"
        }
      ],
      "name": "Claim",
      "type": "event"
    },
    {
      "anonymous": false,
      "inputs": [
        {
          "indexed": false,
          "internalType": "uint256",
          "name": "id",
          "type": "uint256"
        },
        {
          "indexed": true,
          "internalType": "address",
          "name": "creator",
          "type": "address"
        },
        {
          "indexed": false,
          "internalType": "uint256",
          "name": "goal",
          "type": "uint256"
        },
        {
          "indexed": false,
          "internalType": "uint32",
          "name": "startAt",
          "type": "uint32"
        },
        {
          "indexed": false,
          "internalType": "uint32",
          "name": "endAt",
          "type": "uint32"
        }
      ],
      "name": "Launch",
      "type": "event"
    },
    {
      "anonymous": false,
      "inputs": [
        {
          "indexed": true,
          "internalType": "uint256",
          "name": "id",
          "type": "uint256"
        },
        {
          "indexed": true,
          "internalType": "address",
          "name": "caller",
          "type": "address"
        },
        {
          "indexed": false,
          "internalType": "uint256",
          "name": "amount",
          "type": "uint256"
        }
      ],
      "name": "Pledge",
      "type": "event"
    },
    {
      "anonymous": false,
      "inputs": [
        {
          "indexed": true,
          "internalType": "uint256",
          "name": "id",
          "type": "uint256"
        },
        {
          "indexed": true,
          "internalType": "address",
          "name": "caller",
          "type": "address"
        },
        {
          "indexed": false,
          "internalType": "uint256",
          "name": "amount",
          "type": "uint256"
        }
      ],
      "name": "Refund",
      "type": "event"
    },
    {
      "anonymous": false,
      "inputs": [
        {
          "indexed": true,
          "internalType": "uint256",
          "name": "id",
          "type": "uint256"
        },
        {
          "indexed": true,
          "internalType": "address",
          "name": "caller",
          "type": "address"
        },
        {
          "indexed": false,
          "internalType": "uint256",
          "name": "amount",
          "type": "uint256"
        }
      ],
      "name": "Unpledge",
      "type": "event"
    },
    {
      "inputs": [
        {
          "internalType": "uint256",
          "name": "",
          "type": "uint256"
        }
      ],
      "name": "campaigns",
      "outputs": [
        {
          "internalType": "address",
          "name": "creator",
          "type": "address"
        },
        {
          "internalType": "uint256",
          "name": "goal",
          "type": "uint256"
        },
        {
          "internalType": "uint256",
          "name": "pledged",
          "type": "uint256"
        },
        {
          "internalType": "uint32",
          "name": "startAt",
          "type": "uint32"
        },
        {
          "internalType": "uint32",
          "name": "endAt",
          "type": "uint32"
        },
        {
          "internalType": "bool",
          "name": "claimed",
          "type": "bool"
        }
      ],
      "stateMutability": "view",
      "type": "function"
    },
    {
      "inputs": [
        {
          "internalType": "uint256",
          "name": "_id",
          "type": "uint256"
        }
      ],
      "name": "cancel",
      "outputs": [],
      "stateMutability": "nonpayable",
      "type": "function"
    },
    {
      "inputs": [
        {
          "internalType": "uint256",
          "name": "_id",
          "type": "uint256"
        }
      ],
      "name": "claim",
      "outputs": [],
      "stateMutability": "nonpayable",
      "type": "function"
    },
    {
      "inputs": [],
      "name": "count",
      "outputs": [
        {
          "internalType": "uint256",
          "name": "",
          "type": "uint256"
        }
      ],
      "stateMutability": "view",
      "type": "function"
    },
    {
      "inputs": [
        {
          "internalType": "uint256",
          "name": "_goal",
          "type": "uint256"
        },
        {
          "internalType": "uint32",
          "name": "_startAt",
          "type": "uint32"
        },
        {
          "internalType": "uint32",
          "name": "_endAt",
          "type": "uint32"
        }
      ],
      "name": "launch",
      "outputs": [],
      "stateMutability": "nonpayable",
      "type": "function"
    },
    {
      "inputs": [
        {
          "internalType": "uint256",
          "name": "_id",
          "type": "uint256"
        },
        {
          "internalType": "uint256",
          "name": "_amount",
          "type": "uint256"
        }
      ],
      "name": "pledge",
      "outputs": [],
      "stateMutability": "nonpayable",
      "type": "function"
    },
    {
      "inputs": [
        {
          "internalType": "uint256",
          "name": "",
          "type": "uint256"
        },
        {
          "internalType": "address",
          "name": "",
          "type": "address"
        }
      ],
      "name": "pledgedAmount",
      "outputs": [
        {
          "internalType": "uint256",
          "name": "",
          "type": "uint256"
        }
      ],
      "stateMutability": "view",
      "type": "function"
    },
    {
      "inputs": [
        {
          "internalType": "uint256",
          "name": "_id",
          "type": "uint256"
        }
      ],
      "name": "refund",
      "outputs": [],
      "stateMutability": "nonpayable",
      "type": "function"
    },
    {
      "inputs": [],
      "name": "token",
      "outputs": [
        {
          "internalType": "contract IERC20",
          "name": "",
          "type": "address"
        }
      ],
      "stateMutability": "view",
      "type": "function"
    },
    {
      "inputs": [
        {
          "internalType": "uint256",
          "name": "_id",
          "type": "uint256"
        },
        {
          "internalType": "uint256",
          "name": "_amount",
          "type": "uint256"
        }
      ],
      "name": "unpledge",
      "outputs": [],
      "stateMutability": "nonpayable",
      "type": "function"
    }
  ],
  "bytecode": "0x60a06040523480156200001157600080fd5b5060405162001d5b38038062001d5b83398181016040528101906200003791906200008c565b8073ffffffffffffffffffffffffffffffffffffffff1660808173ffffffffffffffffffffffffffffffffffffffff1660601b815250505062000106565b6000815190506200008681620000ec565b92915050565b6000602082840312156200009f57600080fd5b6000620000af8482850162000075565b91505092915050565b6000620000c582620000cc565b9050919050565b600073ffffffffffffffffffffffffffffffffffffffff82169050919050565b620000f781620000b8565b81146200010357600080fd5b50565b60805160601c611c1a62000141600039600081816103e50152818161093c01528181610e3e01528181610f6501526110ca0152611c1a6000f3fe608060405234801561001057600080fd5b506004361061009e5760003560e01c806340e58ee51161006657806340e58ee51461014a578063711853ab14610166578063aa4fb63a14610182578063fc0c546a146101b2578063fde327be146101d05761009e565b806306661abd146100a3578063141961bc146100c1578063278ecde1146100f65780632c63f14614610112578063379607f51461012e575b600080fd5b6100ab6101ec565b6040516100b89190611784565b60405180910390f35b6100db60048036038101906100d69190611249565b6101f2565b6040516100ed96959493929190611588565b60405180910390f35b610110600480360381019061010b9190611249565b61027b565b005b61012c600480360381019061012791906112ea565b6104e5565b005b61014860048036038101906101439190611249565b61077b565b005b610164600480360381019061015f9190611249565b610a27565b005b610180600480360381019061017b91906112ae565b610ca2565b005b61019c60048036038101906101979190611272565b610f3e565b6040516101a99190611784565b60405180910390f35b6101ba610f63565b6040516101c791906115e9565b60405180910390f35b6101ea60048036038101906101e591906112ae565b610f87565b005b60005481565b60016020528060005260406000206000915090508060000160009054906101000a900473ffffffffffffffffffffffffffffffffffffffff16908060010154908060020154908060030160009054906101000a900463ffffffff16908060030160049054906101000a900463ffffffff16908060030160089054906101000a900460ff16905086565b600060016000838152602001908152602001600020905080600101548160020154106102dc576040517f08c379a00000000000000000000000000000000000000000000000000000000081526004016102d3906116c4565b60405180910390fd5b8060030160049054906101000a900463ffffffff1663ffffffff164211610338576040517f08c379a000000000000000000000000000000000000000000000000000000000815260040161032f90611704565b60405180910390fd5b60006002600084815260200190815260200160002060003373ffffffffffffffffffffffffffffffffffffffff1673ffffffffffffffffffffffffffffffffffffffff16815260200190815260200160002054905060006002600085815260200190815260200160002060003373ffffffffffffffffffffffffffffffffffffffff1673ffffffffffffffffffffffffffffffffffffffff168152602001908152602001600020819055507f000000000000000000000000000000000000000000000000000000000000000073ffffffffffffffffffffffffffffffffffffffff1663a9059cbb33836040518363ffffffff1660e01b815260040161043e92919061155f565b602060405180830381600087803b15801561045857600080fd5b505af115801561046c573d6000803e3d6000fd5b505050506040513d601f19601f820116820180604052508101906104909190611220565b503373ffffffffffffffffffffffffffffffffffffffff16837f21e12a7cad0da5928167e1084ea4d5fdf8d9af66657a2543a9ac76a0ca081477836040516104d89190611784565b60405180910390a3505050565b428263ffffffff16101561052e576040517f08c379a000000000000000000000000000000000000000000000000000000000815260040161052590611684565b60405180910390fd5b8163ffffffff168163ffffffff16101561057d576040517f08c379a000000000000000000000000000000000000000000000000000000000815260040161057490611724565b60405180910390fd5b6276a7004261058c91906117f5565b8163ffffffff1611156105d4576040517f08c379a00000000000000000000000000000000000000000000000000000000081526004016105cb90611764565b60405180910390fd5b60016000808282546105e691906117f5565b925050819055506040518060c001604052803373ffffffffffffffffffffffffffffffffffffffff168152602001848152602001600081526020018363ffffffff1681526020018263ffffffff16815260200160001515815250600160008054815260200190815260200160002060008201518160000160006101000a81548173ffffffffffffffffffffffffffffffffffffffff021916908373ffffffffffffffffffffffffffffffffffffffff160217905550602082015181600101556040820151816002015560608201518160030160006101000a81548163ffffffff021916908363ffffffff16021790555060808201518160030160046101000a81548163ffffffff021916908363ffffffff16021790555060a08201518160030160086101000a81548160ff0219169083151502179055509050503373ffffffffffffffffffffffffffffffffffffffff167f0601cd0d650b473037e838a2696d41e654433d065b3f56b28d1d3302e44a304f60005485858560405161076e949392919061179f565b60405180910390a2505050565b60006001600083815260200190815260200160002090508060000160009054906101000a900473ffffffffffffffffffffffffffffffffffffffff1673ffffffffffffffffffffffffffffffffffffffff163373ffffffffffffffffffffffffffffffffffffffff1614610824576040517f08c379a000000000000000000000000000000000000000000000000000000000815260040161081b90611664565b60405180910390fd5b80600101548160020154101561086f576040517f08c379a0000000000000000000000000000000000000000000000000000000008152600401610866906116c4565b60405180910390fd5b8060030160049054906101000a900463ffffffff1663ffffffff1642116108cb576040517f08c379a00000000000000000000000000000000000000000000000000000000081526004016108c290611704565b60405180910390fd5b8060030160089054906101000a900460ff161561091d576040517f08c379a0000000000000000000000000000000000000000000000000000000008152600401610914906116e4565b60405180910390fd5b60018160030160086101000a81548160ff0219169083151502179055507f000000000000000000000000000000000000000000000000000000000000000073ffffffffffffffffffffffffffffffffffffffff1663a9059cbb3383600201546040518363ffffffff1660e01b815260040161099992919061155f565b602060405180830381600087803b1580156109b357600080fd5b505af11580156109c7573d6000803e3d6000fd5b505050506040513d601f19601f820116820180604052508101906109eb9190611220565b507f7bb2b3c10797baccb6f8c4791f1edd6ca2f0d028ee0eda64b01a9a57e3a653f782604051610a1b9190611784565b60405180910390a15050565b6000600160008381526020019081526020016000206040518060c00160405290816000820160009054906101000a900473ffffffffffffffffffffffffffffffffffffffff1673ffffffffffffffffffffffffffffffffffffffff1673ffffffffffffffffffffffffffffffffffffffff16815260200160018201548152602001600282015481526020016003820160009054906101000a900463ffffffff1663ffffffff1663ffffffff1681526020016003820160049054906101000a900463ffffffff1663ffffffff1663ffffffff1681526020016003820160089054906101000a900460ff1615151515815250509050806000015173ffffffffffffffffffffffffffffffffffffffff163373ffffffffffffffffffffffffffffffffffffffff1614610b8c576040517f08c379a0000000000000000000000000000000000000000000000000000000008152600401610b83906116a4565b60405180910390fd5b806060015163ffffffff164210610bd8576040517f08c379a0000000000000000000000000000000000000000000000000000000008152600401610bcf90611744565b60405180910390fd5b60016000838152602001908152602001600020600080820160006101000a81549073ffffffffffffffffffffffffffffffffffffffff0219169055600182016000905560028201600090556003820160006101000a81549063ffffffff02191690556003820160046101000a81549063ffffffff02191690556003820160086101000a81549060ff021916905550507f8bf30e7ff26833413be5f69e1d373744864d600b664204b4a2f9844a8eedb9ed82604051610c969190611784565b60405180910390a15050565b60006001600084815260200190815260200160002090508060030160009054906101000a900463ffffffff1663ffffffff16421015610d16576040517f08c379a0000000000000000000000000000000000000000000000000000000008152600401610d0d90611624565b60405180910390fd5b8060030160049054906101000a900463ffffffff1663ffffffff16421115610d73576040517f08c379a0000000000000000000000000000000000000000000000000000000008152600401610d6a90611644565b60405180910390fd5b8181600201541015610dba576040517f08c379a0000000000000000000000000000000000000000000000000000000008152600401610db190611604565b60405180910390fd5b81816002016000828254610dce919061184b565b92505081905550816002600085815260200190815260200160002060003373ffffffffffffffffffffffffffffffffffffffff1673ffffffffffffffffffffffffffffffffffffffff1681526020019081526020016000206000828254610e35919061184b565b925050819055507f000000000000000000000000000000000000000000000000000000000000000073ffffffffffffffffffffffffffffffffffffffff1663a9059cbb33846040518363ffffffff1660e01b8152600401610e9792919061155f565b602060405180830381600087803b158015610eb157600080fd5b505af1158015610ec5573d6000803e3d6000fd5b505050506040513d601f19601f82011682018060405250810190610ee99190611220565b503373ffffffffffffffffffffffffffffffffffffffff16837f2eeeab891b26a214d1b25749f88a406bdea852bd8c9bfda977e0ef8114c180ba84604051610f319190611784565b60405180910390a3505050565b6002602052816000526040600020602052806000526040600020600091509150505481565b7f000000000000000000000000000000000000000000000000000000000000000081565b60006001600084815260200190815260200160002090508060030160009054906101000a900463ffffffff1663ffffffff16421015610ffb576040517f08c379a0000000000000000000000000000000000000000000000000000000008152600401610ff290611624565b60405180910390fd5b8060030160049054906101000a900463ffffffff1663ffffffff16421115611058576040517f08c379a000000000000000000000000000000000000000000000000000000000815260040161104f90611644565b60405180910390fd5b8181600201600082825461106c91906117f5565b92505081905550816002600085815260200190815260200160002060003373ffffffffffffffffffffffffffffffffffffffff1673ffffffffffffffffffffffffffffffffffffffff168152602001908152602001600020819055507f000000000000000000000000000000000000000000000000000000000000000073ffffffffffffffffffffffffffffffffffffffff166323b872dd3330856040518463ffffffff1660e01b815260040161112593929190611528565b602060405180830381600087803b15801561113f57600080fd5b505af1158015611153573d6000803e3d6000fd5b505050506040513d601f19601f820116820180604052508101906111779190611220565b503373ffffffffffffffffffffffffffffffffffffffff16837f06bdb975df800a73232998e71ed585d536222f1dfeaa622d7f62a23ada686c82846040516111bf9190611784565b60405180910390a3505050565b6000813590506111db81611b88565b92915050565b6000815190506111f081611b9f565b92915050565b60008135905061120581611bb6565b92915050565b60008135905061121a81611bcd565b92915050565b60006020828403121561123257600080fd5b6000611240848285016111e1565b91505092915050565b60006020828403121561125b57600080fd5b6000611269848285016111f6565b91505092915050565b6000806040838503121561128557600080fd5b6000611293858286016111f6565b92505060206112a4858286016111cc565b9150509250929050565b600080604083850312156112c157600080fd5b60006112cf858286016111f6565b92505060206112e0858286016111f6565b9150509250929050565b6000806000606084860312156112ff57600080fd5b600061130d868287016111f6565b935050602061131e8682870161120b565b925050604061132f8682870161120b565b9150509250925092565b6113428161187f565b82525050565b61135181611891565b82525050565b611360816118d7565b82525050565b60006113736030836117e4565b915061137e8261192a565b604082019050919050565b6000611396600b836117e4565b91506113a182611979565b602082019050919050565b60006113b96005836117e4565b91506113c4826119a2565b602082019050919050565b60006113dc600b836117e4565b91506113e7826119cb565b602082019050919050565b60006113ff600d836117e4565b915061140a826119f4565b602082019050919050565b6000611422602c836117e4565b915061142d82611a1d565b604082019050919050565b6000611445600c836117e4565b915061145082611a6c565b602082019050919050565b60006114686007836117e4565b915061147382611a95565b602082019050919050565b600061148b6009836117e4565b915061149682611abe565b602082019050919050565b60006114ae6014836117e4565b91506114b982611ae7565b602082019050919050565b60006114d16007836117e4565b91506114dc82611b10565b602082019050919050565b60006114f4603a836117e4565b91506114ff82611b39565b604082019050919050565b611513816118bd565b82525050565b611522816118c7565b82525050565b600060608201905061153d6000830186611339565b61154a6020830185611339565b611557604083018461150a565b949350505050565b60006040820190506115746000830185611339565b611581602083018461150a565b9392505050565b600060c08201905061159d6000830189611339565b6115aa602083018861150a565b6115b7604083018761150a565b6115c46060830186611519565b6115d16080830185611519565b6115de60a0830184611348565b979650505050505050565b60006020820190506115fe6000830184611357565b92915050565b6000602082019050818103600083015261161d81611366565b9050919050565b6000602082019050818103600083015261163d81611389565b9050919050565b6000602082019050818103600083015261165d816113ac565b9050919050565b6000602082019050818103600083015261167d816113cf565b9050919050565b6000602082019050818103600083015261169d816113f2565b9050919050565b600060208201905081810360008301526116bd81611415565b9050919050565b600060208201905081810360008301526116dd81611438565b9050919050565b600060208201905081810360008301526116fd8161145b565b9050919050565b6000602082019050818103600083015261171d8161147e565b9050919050565b6000602082019050818103600083015261173d816114a1565b9050919050565b6000602082019050818103600083015261175d816114c4565b9050919050565b6000602082019050818103600083015261177d816114e7565b9050919050565b6000602082019050611799600083018461150a565b92915050565b60006080820190506117b4600083018761150a565b6117c1602083018661150a565b6117ce6040830185611519565b6117db6060830184611519565b95945050505050565b600082825260208201905092915050565b6000611800826118bd565b915061180b836118bd565b9250827fffffffffffffffffffffffffffffffffffffffffffffffffffffffffffffffff038211156118405761183f6118fb565b5b828201905092915050565b6000611856826118bd565b9150611861836118bd565b925082821015611874576118736118fb565b5b828203905092915050565b600061188a8261189d565b9050919050565b60008115159050919050565b600073ffffffffffffffffffffffffffffffffffffffff82169050919050565b6000819050919050565b600063ffffffff82169050919050565b60006118e2826118e9565b9050919050565b60006118f48261189d565b9050919050565b7f4e487b7100000000000000000000000000000000000000000000000000000000600052601160045260246000fd5b7f416d6f756e742073686f756c64206265206c657373206f7220657175616c207460008201527f6f20706c656467656420616d6f756e7400000000000000000000000000000000602082015250565b7f4e6f742053746172746564000000000000000000000000000000000000000000600082015250565b7f456e646564000000000000000000000000000000000000000000000000000000600082015250565b7f4e6f742063726561746f72000000000000000000000000000000000000000000600082015250565b7f73746172742041743c206e6f7700000000000000000000000000000000000000600082015250565b7f596f7520646f6e277420686176652061636365737320746f2063616e63656c2060008201527f7468652063616d706169676e0000000000000000000000000000000000000000602082015250565b7f506c65646765643c676f616c0000000000000000000000000000000000000000600082015250565b7f436c61696d656400000000000000000000000000000000000000000000000000600082015250565b7f4e6f7420656e6465640000000000000000000000000000000000000000000000600082015250565b7f656e642061743e206d6178206475726174696f6e000000000000000000000000600082015250565b7f5374617274656400000000000000000000000000000000000000000000000000600082015250565b7f656e642041742073686f756c64206265206c657373206f7220657175616c207460008201527f6f20393020646179732061667465722073746172742064617465000000000000602082015250565b611b918161187f565b8114611b9c57600080fd5b50565b611ba881611891565b8114611bb357600080fd5b50565b611bbf816118bd565b8114611bca57600080fd5b50565b611bd6816118c7565b8114611be157600080fd5b5056fea264697066735822122090cf8e6a479c7a4f6f9a89b6ba9ee2d5e7fb4986c81690c8e0cfdbac521e9bda64736f6c63430008040033",
  "linkReferences": {},
  "deployedLinkReferences": {}
}